{
  "contractName": "Election",
  "abi": [
    {
      "constant": true,
      "inputs": [
        {
          "name": "",
          "type": "uint256"
        }
      ],
      "name": "candidates",
      "outputs": [
        {
          "name": "id",
          "type": "uint256"
        },
        {
          "name": "name",
          "type": "string"
        },
        {
          "name": "voteCount",
          "type": "uint256"
        }
      ],
      "payable": false,
      "stateMutability": "view",
      "type": "function"
    },
    {
      "constant": true,
      "inputs": [
        {
          "name": "",
          "type": "address"
        }
      ],
      "name": "voter",
      "outputs": [
        {
          "name": "",
          "type": "bool"
        }
      ],
      "payable": false,
      "stateMutability": "view",
      "type": "function"
    },
    {
      "constant": true,
      "inputs": [],
      "name": "candidatecount",
      "outputs": [
        {
          "name": "",
          "type": "uint256"
        }
      ],
      "payable": false,
      "stateMutability": "view",
      "type": "function"
    },
    {
      "inputs": [],
      "payable": false,
      "stateMutability": "nonpayable",
      "type": "constructor"
    },
    {
      "anonymous": false,
      "inputs": [
        {
          "indexed": true,
          "name": "_candidateid",
          "type": "uint256"
        }
      ],
      "name": "eventVote",
      "type": "event"
    },
    {
      "constant": false,
      "inputs": [
        {
          "name": "_candidateid",
          "type": "uint256"
        }
      ],
      "name": "vote",
      "outputs": [],
      "payable": false,
      "stateMutability": "nonpayable",
      "type": "function"
    }
  ],
  "bytecode": "0x608060405234801561001057600080fd5b50d3801561001d57600080fd5b50d2801561002a57600080fd5b506100786040805190810160405280600581526020017f416c6963650000000000000000000000000000000000000000000000000000008152506100ca640100000000026401000000009004565b6100c56040805190810160405280600381526020017f426f6200000000000000000000000000000000000000000000000000000000008152506100ca640100000000026401000000009004565b6101eb565b600160008154809291906001019190505550606060405190810160405280600154815260200182815260200160008152506000806001548152602001908152602001600020600082015181600001556020820151816001019080519060200190610135929190610146565b506040820151816002015590505050565b828054600181600116156101000203166002900490600052602060002090601f016020900481019282601f1061018757805160ff19168380011785556101b5565b828001600101855582156101b5579182015b828111156101b4578251825591602001919060010190610199565b5b5090506101c291906101c6565b5090565b6101e891905b808211156101e45760008160009055506001016101cc565b5090565b90565b61041c806101fa6000396000f3fe608060405234801561001057600080fd5b50d3801561001d57600080fd5b50d2801561002a57600080fd5b5060043610610083576000357c0100000000000000000000000000000000000000000000000000000000900480630121b93f146100885780633477ee2e146100b6578063af0dbe541461016b578063c8b94d69146101c7575b600080fd5b6100b46004803603602081101561009e57600080fd5b81019080803590602001909291905050506101e5565b005b6100e2600480360360208110156100cc57600080fd5b8101908080359060200190929190505050610308565b6040518084815260200180602001838152602001828103825284818151815260200191508051906020019080838360005b8381101561012e578082015181840152602081019050610113565b50505050905090810190601f16801561015b5780820380516001836020036101000a031916815260200191505b5094505050505060405180910390f35b6101ad6004803603602081101561018157600080fd5b81019080803573ffffffffffffffffffffffffffffffffffffffff1690602001909291905050506103ca565b604051808215151515815260200191505060405180910390f35b6101cf6103ea565b6040518082815260200191505060405180910390f35b600260003373ffffffffffffffffffffffffffffffffffffffff1673ffffffffffffffffffffffffffffffffffffffff16815260200190815260200160002060009054906101000a900460ff1615151561023e57600080fd5b60008111801561025057506001548111155b151561025b57600080fd5b6001600260003373ffffffffffffffffffffffffffffffffffffffff1673ffffffffffffffffffffffffffffffffffffffff16815260200190815260200160002060006101000a81548160ff02191690831515021790555060008082815260200190815260200160002060020160008154809291906001019190505550807f5190cbcb11a5b819d29d510204755e1304f26705e78d63e90e9befa7c78c164b60405160405180910390a250565b6000602052806000526040600020600091509050806000015490806001018054600181600116156101000203166002900480601f0160208091040260200160405190810160405280929190818152602001828054600181600116156101000203166002900480156103ba5780601f1061038f576101008083540402835291602001916103ba565b820191906000526020600020905b81548152906001019060200180831161039d57829003601f168201915b5050505050908060020154905083565b60026020528060005260406000206000915054906101000a900460ff1681565b6001548156fea165627a7a7230582001649c685f89a3e6b6f6ddb05d0db415dde11c6e88c958fb03f3b37d65f947300029",
  "source": "pragma solidity >=0.4.20;\n\ncontract Election{\n\n    struct Candidate{\n        uint id;\n        string name;\n        uint voteCount;\n    }\n    mapping (uint => Candidate) public candidates;\n    uint public candidatecount;\n    mapping (address => bool) public voter;\n\n    event eventVote(\n        uint indexed _candidateid\n    );\n\n    constructor () public {\n        addCandidate(\"Alice\");\n        addCandidate(\"Bob\");\n    }\n\n    function addCandidate(string memory _name) private {\n        candidatecount++;\n        candidates[candidatecount] = Candidate(candidatecount,_name,0);\n    }\n\n    function vote(uint _candidateid) public {\n\n        require(!voter[msg.sender]);\n\n        require(_candidateid > 0 && _candidateid <= candidatecount);\n\n        voter[msg.sender] = true;\n\n        candidates[_candidateid].voteCount ++;\n\n        emit eventVote(_candidateid);\n\n    }\n\n}\n",
  "sourcePath": "/home/neha/nexennew/contracts/Election.sol",
  "compiler": {
    "name": "solc",
    "version": "0.5.4+commit.d15a3125.mod.Emscripten.clang"
  },
  "schemaVersion": "2.0.1",
  "updatedAt": "2020-08-22T08:38:38.699Z"
}