{
  "contractName": "MLM",
  "abi": [
    {
      "constant": true,
      "inputs": [
        {
          "name": "",
          "type": "uint256"
        }
      ],
      "name": "users_ids",
      "outputs": [
        {
          "name": "",
          "type": "address"
        }
      ],
      "payable": false,
      "stateMutability": "view",
      "type": "function"
    },
    {
      "constant": true,
      "inputs": [],
      "name": "totalAmountDistributed",
      "outputs": [
        {
          "name": "",
          "type": "uint256"
        }
      ],
      "payable": false,
      "stateMutability": "view",
      "type": "function"
    },
    {
      "constant": true,
      "inputs": [],
      "name": "distributionWallet",
      "outputs": [
        {
          "name": "",
          "type": "uint256"
        }
      ],
      "payable": false,
      "stateMutability": "view",
      "type": "function"
    },
    {
      "constant": true,
      "inputs": [
        {
          "name": "",
          "type": "address"
        }
      ],
      "name": "usersFund",
      "outputs": [
        {
          "name": "recycleFund",
          "type": "uint256"
        },
        {
          "name": "levelFund",
          "type": "uint256"
        }
      ],
      "payable": false,
      "stateMutability": "view",
      "type": "function"
    },
    {
      "constant": true,
      "inputs": [],
      "name": "levelRewardWallet",
      "outputs": [
        {
          "name": "",
          "type": "uint256"
        }
      ],
      "payable": false,
      "stateMutability": "view",
      "type": "function"
    },
    {
      "constant": true,
      "inputs": [
        {
          "name": "",
          "type": "uint256"
        }
      ],
      "name": "levelWinners",
      "outputs": [
        {
          "name": "",
          "type": "address"
        }
      ],
      "payable": false,
      "stateMutability": "view",
      "type": "function"
    },
    {
      "constant": true,
      "inputs": [],
      "name": "ownerWallet",
      "outputs": [
        {
          "name": "",
          "type": "address"
        }
      ],
      "payable": false,
      "stateMutability": "view",
      "type": "function"
    },
    {
      "constant": true,
      "inputs": [
        {
          "name": "",
          "type": "address"
        }
      ],
      "name": "users",
      "outputs": [
        {
          "name": "id",
          "type": "uint256"
        },
        {
          "name": "inviter",
          "type": "address"
        },
        {
          "name": "totalReferals",
          "type": "uint256"
        },
        {
          "name": "totalWins",
          "type": "uint256"
        },
        {
          "name": "totalRecycles",
          "type": "uint256"
        },
        {
          "name": "levelsPurchased",
          "type": "uint256"
        },
        {
          "name": "upline",
          "type": "uint256"
        },
        {
          "name": "isExist",
          "type": "bool"
        },
        {
          "name": "loss",
          "type": "uint256"
        },
        {
          "name": "getLevelReward",
          "type": "bool"
        }
      ],
      "payable": false,
      "stateMutability": "view",
      "type": "function"
    },
    {
      "constant": true,
      "inputs": [
        {
          "name": "",
          "type": "address"
        }
      ],
      "name": "usersIncomes",
      "outputs": [
        {
          "name": "directIncome",
          "type": "uint256"
        },
        {
          "name": "rewardIncome",
          "type": "uint256"
        },
        {
          "name": "levelIncome",
          "type": "uint256"
        },
        {
          "name": "recycleIncome",
          "type": "uint256"
        },
        {
          "name": "upgradeIncome",
          "type": "uint256"
        },
        {
          "name": "levelRewardIncome",
          "type": "uint256"
        }
      ],
      "payable": false,
      "stateMutability": "view",
      "type": "function"
    },
    {
      "constant": true,
      "inputs": [
        {
          "name": "",
          "type": "uint256"
        }
      ],
      "name": "levels",
      "outputs": [
        {
          "name": "",
          "type": "uint256"
        }
      ],
      "payable": false,
      "stateMutability": "view",
      "type": "function"
    },
    {
      "constant": true,
      "inputs": [],
      "name": "totalUsers",
      "outputs": [
        {
          "name": "",
          "type": "uint256"
        }
      ],
      "payable": false,
      "stateMutability": "view",
      "type": "function"
    },
    {
      "constant": true,
      "inputs": [],
      "name": "rewardWallet",
      "outputs": [
        {
          "name": "",
          "type": "uint256"
        }
      ],
      "payable": false,
      "stateMutability": "view",
      "type": "function"
    },
    {
      "inputs": [],
      "payable": false,
      "stateMutability": "nonpayable",
      "type": "constructor"
    },
    {
      "anonymous": false,
      "inputs": [
        {
          "indexed": true,
          "name": "addr",
          "type": "address"
        },
        {
          "indexed": true,
          "name": "inviter",
          "type": "address"
        },
        {
          "indexed": false,
          "name": "id",
          "type": "uint256"
        }
      ],
      "name": "Register",
      "type": "event"
    },
    {
      "anonymous": false,
      "inputs": [
        {
          "indexed": true,
          "name": "addr",
          "type": "address"
        },
        {
          "indexed": true,
          "name": "upline",
          "type": "address"
        },
        {
          "indexed": false,
          "name": "level",
          "type": "uint8"
        }
      ],
      "name": "BuyLevel",
      "type": "event"
    },
    {
      "anonymous": false,
      "inputs": [
        {
          "indexed": true,
          "name": "_user",
          "type": "address"
        },
        {
          "indexed": false,
          "name": "_level",
          "type": "uint256"
        }
      ],
      "name": "buyLevelEvent",
      "type": "event"
    },
    {
      "constant": false,
      "inputs": [
        {
          "name": "_inviter_id",
          "type": "uint256"
        }
      ],
      "name": "register",
      "outputs": [],
      "payable": true,
      "stateMutability": "payable",
      "type": "function"
    },
    {
      "constant": false,
      "inputs": [
        {
          "name": "_level",
          "type": "uint256"
        }
      ],
      "name": "buyLevel",
      "outputs": [],
      "payable": true,
      "stateMutability": "payable",
      "type": "function"
    },
    {
      "constant": false,
      "inputs": [
        {
          "name": "_user",
          "type": "address"
        }
      ],
      "name": "autoBuyLevel",
      "outputs": [],
      "payable": false,
      "stateMutability": "nonpayable",
      "type": "function"
    },
    {
      "constant": false,
      "inputs": [
        {
          "name": "_user",
          "type": "address"
        }
      ],
      "name": "recycleId",
      "outputs": [],
      "payable": false,
      "stateMutability": "nonpayable",
      "type": "function"
    },
    {
      "constant": false,
      "inputs": [
        {
          "name": "_winner1",
          "type": "uint256"
        },
        {
          "name": "_winner2",
          "type": "uint256"
        },
        {
          "name": "_winner3",
          "type": "uint256"
        }
      ],
      "name": "distributeReward",
      "outputs": [],
      "payable": false,
      "stateMutability": "nonpayable",
      "type": "function"
    },
    {
      "constant": false,
      "inputs": [],
      "name": "distributeLevelReward",
      "outputs": [],
      "payable": false,
      "stateMutability": "nonpayable",
      "type": "function"
    },
    {
      "constant": false,
      "inputs": [
        {
          "name": "_level",
          "type": "uint256"
        },
        {
          "name": "_user",
          "type": "address"
        }
      ],
      "name": "distributeLevelUpgradeAmount",
      "outputs": [],
      "payable": false,
      "stateMutability": "nonpayable",
      "type": "function"
    },
    {
      "constant": true,
      "inputs": [],
      "name": "getTotalAmountWithdrawn",
      "outputs": [
        {
          "name": "",
          "type": "uint256"
        }
      ],
      "payable": false,
      "stateMutability": "view",
      "type": "function"
    },
    {
      "constant": true,
      "inputs": [],
      "name": "getTotalUsers",
      "outputs": [
        {
          "name": "",
          "type": "uint256"
        }
      ],
      "payable": false,
      "stateMutability": "view",
      "type": "function"
    },
    {
      "constant": true,
      "inputs": [],
      "name": "getRewardWallet",
      "outputs": [
        {
          "name": "",
          "type": "uint256"
        }
      ],
      "payable": false,
      "stateMutability": "view",
      "type": "function"
    },
    {
      "constant": true,
      "inputs": [],
      "name": "getLevelRewardWallet",
      "outputs": [
        {
          "name": "",
          "type": "uint256"
        }
      ],
      "payable": false,
      "stateMutability": "view",
      "type": "function"
    },
    {
      "constant": true,
      "inputs": [
        {
          "name": "_add",
          "type": "address"
        }
      ],
      "name": "getDirectIncome",
      "outputs": [
        {
          "name": "",
          "type": "uint256"
        }
      ],
      "payable": false,
      "stateMutability": "view",
      "type": "function"
    },
    {
      "constant": true,
      "inputs": [
        {
          "name": "_id",
          "type": "uint256"
        }
      ],
      "name": "getUserInfo",
      "outputs": [
        {
          "name": "inviter",
          "type": "address"
        },
        {
          "name": "totalReferals",
          "type": "uint256"
        },
        {
          "name": "totalRecycles",
          "type": "uint256"
        },
        {
          "name": "totalWins",
          "type": "uint256"
        },
        {
          "name": "levelsPurchased",
          "type": "uint256"
        },
        {
          "name": "loss",
          "type": "uint256"
        }
      ],
      "payable": false,
      "stateMutability": "view",
      "type": "function"
    },
    {
      "constant": true,
      "inputs": [
        {
          "name": "_id",
          "type": "uint256"
        }
      ],
      "name": "getUsersIncomes",
      "outputs": [
        {
          "name": "directIncome",
          "type": "uint256"
        },
        {
          "name": "rewardIncome",
          "type": "uint256"
        },
        {
          "name": "levelIncome",
          "type": "uint256"
        },
        {
          "name": "recycleIncome",
          "type": "uint256"
        },
        {
          "name": "upgradeIncome",
          "type": "uint256"
        },
        {
          "name": "levelRewardIncome",
          "type": "uint256"
        }
      ],
      "payable": false,
      "stateMutability": "view",
      "type": "function"
    },
    {
      "constant": true,
      "inputs": [
        {
          "name": "_id",
          "type": "uint256"
        }
      ],
      "name": "getUsersFunds",
      "outputs": [
        {
          "name": "recycleFund",
          "type": "uint256"
        },
        {
          "name": "levelFund",
          "type": "uint256"
        }
      ],
      "payable": false,
      "stateMutability": "view",
      "type": "function"
    },
    {
      "constant": false,
      "inputs": [],
      "name": "withDrawlevelFund",
      "outputs": [],
      "payable": false,
      "stateMutability": "nonpayable",
      "type": "function"
    },
    {
      "constant": false,
      "inputs": [],
      "name": "withdrawDistributionWallet",
      "outputs": [],
      "payable": false,
      "stateMutability": "nonpayable",
      "type": "function"
    },
    {
      "constant": true,
      "inputs": [
        {
          "name": "_user",
          "type": "address"
        }
      ],
      "name": "findFreeReferrer",
      "outputs": [
        {
          "name": "",
          "type": "address"
        }
      ],
      "payable": false,
      "stateMutability": "view",
      "type": "function"
    },
    {
      "constant": true,
      "inputs": [
        {
          "name": "_id",
          "type": "uint256"
        }
      ],
      "name": "getLevelsPurchased",
      "outputs": [
        {
          "name": "",
          "type": "uint256"
        }
      ],
      "payable": false,
      "stateMutability": "view",
      "type": "function"
    },
    {
      "constant": true,
      "inputs": [
        {
          "name": "_id",
          "type": "uint256"
        }
      ],
      "name": "viewUserReferral",
      "outputs": [
        {
          "name": "",
          "type": "address[]"
        }
      ],
      "payable": false,
      "stateMutability": "view",
      "type": "function"
    },
    {
      "constant": false,
      "inputs": [
        {
          "name": "_id",
          "type": "uint256"
        }
      ],
      "name": "setUplines",
      "outputs": [],
      "payable": false,
      "stateMutability": "nonpayable",
      "type": "function"
    },
    {
      "constant": true,
      "inputs": [
        {
          "name": "_id",
          "type": "uint256"
        }
      ],
      "name": "getUplines",
      "outputs": [
        {
          "name": "",
          "type": "address[]"
        }
      ],
      "payable": false,
      "stateMutability": "view",
      "type": "function"
    },
    {
      "constant": false,
      "inputs": [],
      "name": "setLevelWinners",
      "outputs": [
        {
          "name": "",
          "type": "uint256"
        }
      ],
      "payable": false,
      "stateMutability": "nonpayable",
      "type": "function"
    },
    {
      "constant": true,
      "inputs": [],
      "name": "getLevelWinners",
      "outputs": [
        {
          "name": "",
          "type": "address[]"
        }
      ],
      "payable": false,
      "stateMutability": "view",
      "type": "function"
    }
  ],
  "bytecode": "0x60806040523480156200001157600080fd5b50d380156200001f57600080fd5b50d280156200002d57600080fd5b506000600181905550336000806101000a81548173ffffffffffffffffffffffffffffffffffffffff021916908373ffffffffffffffffffffffffffffffffffffffff1602179055506007633b9aca0090806001815401808255809150509060018203906000526020600020016000909192909190915055506007631dcd650090806001815401808255809150509060018203906000526020600020016000909192909190915055506007633b9aca00908060018154018082558091505090600182039060005260206000200160009091929091909150555060076359682f0090806001815401808255809150509060018203906000526020600020016000909192909190915055506007637735940090806001815401808255809150509060018203906000526020600020016000909192909190915055506007639502f9009080600181540180825580915050906001820390600052602060002001600090919290919091505550600763b2d05e009080600181540180825580915050906001820390600052602060002001600090919290919091505550600763d09dc3009080600181540180825580915050906001820390600052602060002001600090919290919091505550600763ee6b28009080600181540180825580915050906001820390600052602060002001600090919290919091505550600764010c388d009080600181540180825580915050906001820390600052602060002001600090919290919091505550600764012a05f2009080600181540180825580915050906001820390600052602060002001600090919290919091505550620002a43360006200044e640100000000026401000000009004565b600a600860003373ffffffffffffffffffffffffffffffffffffffff1673ffffffffffffffffffffffffffffffffffffffff1681526020019081526020016000206005018190555060006040519080825280602002602001820160405280156200031d5781602001602082028038833980820191505090505b50600860003373ffffffffffffffffffffffffffffffffffffffff1673ffffffffffffffffffffffffffffffffffffffff168152602001908152602001600020600801908051906020019062000375929190620006e7565b506000600860003373ffffffffffffffffffffffffffffffffffffffff1673ffffffffffffffffffffffffffffffffffffffff168152602001908152602001600020600601819055506000604051908082528060200260200182016040528015620003ef5781602001602082028038833980820191505090505b50600860003373ffffffffffffffffffffffffffffffffffffffff1673ffffffffffffffffffffffffffffffffffffffff168152602001908152602001600020600701908051906020019062000447929190620006e7565b50620007bc565b600160008154809291906001019190505550600154600860008473ffffffffffffffffffffffffffffffffffffffff1673ffffffffffffffffffffffffffffffffffffffff1681526020019081526020016000206000018190555080600860008473ffffffffffffffffffffffffffffffffffffffff1673ffffffffffffffffffffffffffffffffffffffff16815260200190815260200160002060010160006101000a81548173ffffffffffffffffffffffffffffffffffffffff021916908373ffffffffffffffffffffffffffffffffffffffff16021790555081600b6000600154815260200190815260200160002060006101000a81548173ffffffffffffffffffffffffffffffffffffffff021916908373ffffffffffffffffffffffffffffffffffffffff1602179055506001600860008473ffffffffffffffffffffffffffffffffffffffff1673ffffffffffffffffffffffffffffffffffffffff168152602001908152602001600020600a0160006101000a81548160ff0219169083151502179055506000600860008473ffffffffffffffffffffffffffffffffffffffff1673ffffffffffffffffffffffffffffffffffffffff168152602001908152602001600020600c0160006101000a81548160ff0219169083151502179055506000600860003373ffffffffffffffffffffffffffffffffffffffff1673ffffffffffffffffffffffffffffffffffffffff168152602001908152602001600020600501819055508073ffffffffffffffffffffffffffffffffffffffff168273ffffffffffffffffffffffffffffffffffffffff167fcc0bec1447060c88cdc5a739cf29cfa26c453574dd3f5b9e4dcc317d6401cb1c6001546040518082815260200191505060405180910390a35050565b82805482825590600052602060002090810192821562000763579160200282015b82811115620007625782518260006101000a81548173ffffffffffffffffffffffffffffffffffffffff021916908373ffffffffffffffffffffffffffffffffffffffff1602179055509160200191906001019062000708565b5b50905062000772919062000776565b5090565b620007b991905b80821115620007b557600081816101000a81549073ffffffffffffffffffffffffffffffffffffffff0219169055506001016200077d565b5090565b90565b615dd780620007cc6000396000f3fe60806040526004361061022c576000357c0100000000000000000000000000000000000000000000000000000000900480639335dcb711610135578063beb28610116100bd578063e405ca011161008c578063e405ca0114610f8a578063f207564e14610fcf578063f2eb0e5514610ffd578063f6838a72146110a7578063fb75b2c7146110d55761022c565b8063beb2861014610ddd578063bff1f9e114610e48578063d379dadf14610e8d578063d67dff0114610f455761022c565b8063ab5bc49f11610104578063ab5bc49f14610b64578063acc87b2e14610be3578063b2596a6714610c85578063b8d9e7a014610cee578063b958089b14610d745761022c565b80639335dcb7146109305780639be572f6146109a1578063a87430ba146109e6578063a8e1c61014610ad85761022c565b8063467d0119116101b85780636bc6c79e116101875780636bc6c79e146107455780636c72f123146107ba578063720f64b5146107eb57806375103d6a1461085657806389b75ff9146108eb5761022c565b8063467d0119146105e05780634f123df51461062557806355f7bd1b1461067a5780635eccfb6d146107005761022c565b806315d1496f116101ff57806315d1496f1461048b57806334ebff14146104bc5780633710040e1461050157806339b728ac146105325780633fad02ef146105775761022c565b8063024e749914610231578063085bea3c146102db5780630883b73c14610370578063132c8c9b146103e0575b600080fd5b34801561023d57600080fd5b50d3801561024a57600080fd5b50d2801561025757600080fd5b506102846004803603602081101561026e57600080fd5b810190808035906020019092919050505061111a565b6040518080602001828103825283818151815260200191508051906020019060200280838360005b838110156102c75780820151818401526020810190506102ac565b505050509050019250505060405180910390f35b3480156102e757600080fd5b50d380156102f457600080fd5b50d2801561030157600080fd5b5061032e6004803603602081101561031857600080fd5b810190808035906020019092919050505061121d565b604051808273ffffffffffffffffffffffffffffffffffffffff1673ffffffffffffffffffffffffffffffffffffffff16815260200191505060405180910390f35b34801561037c57600080fd5b50d3801561038957600080fd5b50d2801561039657600080fd5b506103c3600480360360208110156103ad57600080fd5b8101908080359060200190929190505050611250565b604051808381526020018281526020019250505060405180910390f35b3480156103ec57600080fd5b50d380156103f957600080fd5b50d2801561040657600080fd5b506104496004803603602081101561041d57600080fd5b81019080803573ffffffffffffffffffffffffffffffffffffffff169060200190929190505050611348565b604051808273ffffffffffffffffffffffffffffffffffffffff1673ffffffffffffffffffffffffffffffffffffffff16815260200191505060405180910390f35b34801561049757600080fd5b50d380156104a457600080fd5b50d280156104b157600080fd5b506104ba611bb3565b005b3480156104c857600080fd5b50d380156104d557600080fd5b50d280156104e257600080fd5b506104eb611f3c565b6040518082815260200191505060405180910390f35b34801561050d57600080fd5b50d3801561051a57600080fd5b50d2801561052757600080fd5b50610530611f46565b005b34801561053e57600080fd5b50d3801561054b57600080fd5b50d2801561055857600080fd5b506105616120ea565b6040518082815260200191505060405180910390f35b34801561058357600080fd5b50d3801561059057600080fd5b50d2801561059d57600080fd5b506105ca600480360360208110156105b457600080fd5b81019080803590602001909291905050506120f0565b6040518082815260200191505060405180910390f35b3480156105ec57600080fd5b50d380156105f957600080fd5b50d2801561060657600080fd5b5061060f61216f565b6040518082815260200191505060405180910390f35b34801561063157600080fd5b50d3801561063e57600080fd5b50d2801561064b57600080fd5b506106786004803603602081101561066257600080fd5b8101908080359060200190929190505050612175565b005b34801561068657600080fd5b50d3801561069357600080fd5b50d280156106a057600080fd5b506106e3600480360360208110156106b757600080fd5b81019080803573ffffffffffffffffffffffffffffffffffffffff1690602001909291905050506123d4565b604051808381526020018281526020019250505060405180910390f35b34801561070c57600080fd5b50d3801561071957600080fd5b50d2801561072657600080fd5b5061072f6123f8565b6040518082815260200191505060405180910390f35b34801561075157600080fd5b50d3801561075e57600080fd5b50d2801561076b57600080fd5b506107b86004803603604081101561078257600080fd5b8101908080359060200190929190803573ffffffffffffffffffffffffffffffffffffffff1690602001909291905050506123fe565b005b3480156107c657600080fd5b50d380156107d357600080fd5b50d280156107e057600080fd5b506107e96128ce565b005b3480156107f757600080fd5b50d3801561080457600080fd5b50d2801561081157600080fd5b506108546004803603602081101561082857600080fd5b81019080803573ffffffffffffffffffffffffffffffffffffffff169060200190929190505050612a2e565b005b34801561086257600080fd5b50d3801561086f57600080fd5b50d2801561087c57600080fd5b506108a96004803603602081101561089357600080fd5b8101908080359060200190929190505050612f8c565b604051808273ffffffffffffffffffffffffffffffffffffffff1673ffffffffffffffffffffffffffffffffffffffff16815260200191505060405180910390f35b3480156108f757600080fd5b50d3801561090457600080fd5b50d2801561091157600080fd5b5061091a612fca565b6040518082815260200191505060405180910390f35b34801561093c57600080fd5b50d3801561094957600080fd5b50d2801561095657600080fd5b5061095f6131b7565b604051808273ffffffffffffffffffffffffffffffffffffffff1673ffffffffffffffffffffffffffffffffffffffff16815260200191505060405180910390f35b3480156109ad57600080fd5b50d380156109ba57600080fd5b50d280156109c757600080fd5b506109d06131dc565b6040518082815260200191505060405180910390f35b3480156109f257600080fd5b50d380156109ff57600080fd5b50d28015610a0c57600080fd5b50610a4f60048036036020811015610a2357600080fd5b81019080803573ffffffffffffffffffffffffffffffffffffffff1690602001909291905050506131e6565b604051808b81526020018a73ffffffffffffffffffffffffffffffffffffffff1673ffffffffffffffffffffffffffffffffffffffff16815260200189815260200188815260200187815260200186815260200185815260200184151515158152602001838152602001821515151581526020019a505050505050505050505060405180910390f35b348015610ae457600080fd5b50d38015610af157600080fd5b50d28015610afe57600080fd5b50610b2b60048036036020811015610b1557600080fd5b8101908080359060200190929190505050613274565b60405180878152602001868152602001858152602001848152602001838152602001828152602001965050505050505060405180910390f35b348015610b7057600080fd5b50d38015610b7d57600080fd5b50d28015610b8a57600080fd5b50610bcd60048036036020811015610ba157600080fd5b81019080803573ffffffffffffffffffffffffffffffffffffffff169060200190929190505050613556565b6040518082815260200191505060405180910390f35b348015610bef57600080fd5b50d38015610bfc57600080fd5b50d28015610c0957600080fd5b50610c4c60048036036020811015610c2057600080fd5b81019080803573ffffffffffffffffffffffffffffffffffffffff1690602001909291905050506135a2565b60405180878152602001868152602001858152602001848152602001838152602001828152602001965050505050505060405180910390f35b348015610c9157600080fd5b50d38015610c9e57600080fd5b50d28015610cab57600080fd5b50610cd860048036036020811015610cc257600080fd5b81019080803590602001909291905050506135de565b6040518082815260200191505060405180910390f35b348015610cfa57600080fd5b50d38015610d0757600080fd5b50d28015610d1457600080fd5b50610d1d613601565b6040518080602001828103825283818151815260200191508051906020019060200280838360005b83811015610d60578082015181840152602081019050610d45565b505050509050019250505060405180910390f35b348015610d8057600080fd5b50d38015610d8d57600080fd5b50d28015610d9a57600080fd5b50610ddb60048036036060811015610db157600080fd5b8101908080359060200190929190803590602001909291908035906020019092919050505061368f565b005b348015610de957600080fd5b50d38015610df657600080fd5b50d28015610e0357600080fd5b50610e4660048036036020811015610e1a57600080fd5b81019080803573ffffffffffffffffffffffffffffffffffffffff1690602001909291905050506142b6565b005b348015610e5457600080fd5b50d38015610e6157600080fd5b50d28015610e6e57600080fd5b50610e77614691565b6040518082815260200191505060405180910390f35b348015610e9957600080fd5b50d38015610ea657600080fd5b50d28015610eb357600080fd5b50610ee060048036036020811015610eca57600080fd5b8101908080359060200190929190505050614697565b604051808773ffffffffffffffffffffffffffffffffffffffff1673ffffffffffffffffffffffffffffffffffffffff168152602001868152602001858152602001848152602001838152602001828152602001965050505050505060405180910390f35b348015610f5157600080fd5b50d38015610f5e57600080fd5b50d28015610f6b57600080fd5b50610f746149a4565b6040518082815260200191505060405180910390f35b348015610f9657600080fd5b50d38015610fa357600080fd5b50d28015610fb057600080fd5b50610fb96149ae565b6040518082815260200191505060405180910390f35b610ffb60048036036020811015610fe557600080fd5b81019080803590602001909291905050506149b8565b005b34801561100957600080fd5b50d3801561101657600080fd5b50d2801561102357600080fd5b506110506004803603602081101561103a57600080fd5b8101908080359060200190929190505050614d08565b6040518080602001828103825283818151815260200191508051906020019060200280838360005b83811015611093578082015181840152602081019050611078565b505050509050019250505060405180910390f35b6110d3600480360360208110156110bd57600080fd5b8101908080359060200190929190505050614e0b565b005b3480156110e157600080fd5b50d380156110ee57600080fd5b50d280156110fb57600080fd5b506111046154dd565b6040518082815260200191505060405180910390f35b606060086000600b600085815260200190815260200160002060009054906101000a900473ffffffffffffffffffffffffffffffffffffffff1673ffffffffffffffffffffffffffffffffffffffff1673ffffffffffffffffffffffffffffffffffffffff16815260200190815260200160002060070180548060200260200160405190810160405280929190818152602001828054801561121157602002820191906000526020600020905b8160009054906101000a900473ffffffffffffffffffffffffffffffffffffffff1673ffffffffffffffffffffffffffffffffffffffff16815260200190600101908083116111c7575b50505050509050919050565b600b6020528060005260406000206000915054906101000a900473ffffffffffffffffffffffffffffffffffffffff1681565b600080600a6000600b600086815260200190815260200160002060009054906101000a900473ffffffffffffffffffffffffffffffffffffffff1673ffffffffffffffffffffffffffffffffffffffff1673ffffffffffffffffffffffffffffffffffffffff16815260200190815260200160002060000154600a6000600b600087815260200190815260200160002060009054906101000a900473ffffffffffffffffffffffffffffffffffffffff1673ffffffffffffffffffffffffffffffffffffffff1673ffffffffffffffffffffffffffffffffffffffff1681526020019081526020016000206001015491509150915091565b60006004600860008473ffffffffffffffffffffffffffffffffffffffff1673ffffffffffffffffffffffffffffffffffffffff1681526020019081526020016000206008018054905010156113a057819050611bae565b60606175306040519080825280602002602001820160405280156113d35781602001602082028038833980820191505090505b509050600860008473ffffffffffffffffffffffffffffffffffffffff1673ffffffffffffffffffffffffffffffffffffffff168152602001908152602001600020600801600081548110151561142657fe5b9060005260206000200160009054906101000a900473ffffffffffffffffffffffffffffffffffffffff1681600081518110151561146057fe5b9060200190602002019073ffffffffffffffffffffffffffffffffffffffff16908173ffffffffffffffffffffffffffffffffffffffff1681525050600860008473ffffffffffffffffffffffffffffffffffffffff1673ffffffffffffffffffffffffffffffffffffffff16815260200190815260200160002060080160018154811015156114ec57fe5b9060005260206000200160009054906101000a900473ffffffffffffffffffffffffffffffffffffffff1681600181518110151561152657fe5b9060200190602002019073ffffffffffffffffffffffffffffffffffffffff16908173ffffffffffffffffffffffffffffffffffffffff1681525050600860008473ffffffffffffffffffffffffffffffffffffffff1673ffffffffffffffffffffffffffffffffffffffff16815260200190815260200160002060080160028154811015156115b257fe5b9060005260206000200160009054906101000a900473ffffffffffffffffffffffffffffffffffffffff168160028151811015156115ec57fe5b9060200190602002019073ffffffffffffffffffffffffffffffffffffffff16908173ffffffffffffffffffffffffffffffffffffffff1681525050600860008473ffffffffffffffffffffffffffffffffffffffff1673ffffffffffffffffffffffffffffffffffffffff168152602001908152602001600020600801600381548110151561167857fe5b9060005260206000200160009054906101000a900473ffffffffffffffffffffffffffffffffffffffff168160038151811015156116b257fe5b9060200190602002019073ffffffffffffffffffffffffffffffffffffffff16908173ffffffffffffffffffffffffffffffffffffffff16815250506000806001905060008090505b617530811015611b3057600460086000868481518110151561171957fe5b9060200190602002015173ffffffffffffffffffffffffffffffffffffffff1673ffffffffffffffffffffffffffffffffffffffff168152602001908152602001600020600801805490501415611b005760086000858381518110151561177c57fe5b9060200190602002015173ffffffffffffffffffffffffffffffffffffffff1673ffffffffffffffffffffffffffffffffffffffff16815260200190815260200160002060080160008154811015156117d157fe5b9060005260206000200160009054906101000a900473ffffffffffffffffffffffffffffffffffffffff16846004600184010281518110151561181057fe5b9060200190602002019073ffffffffffffffffffffffffffffffffffffffff16908173ffffffffffffffffffffffffffffffffffffffff168152505060086000858381518110151561185e57fe5b9060200190602002015173ffffffffffffffffffffffffffffffffffffffff1673ffffffffffffffffffffffffffffffffffffffff16815260200190815260200160002060080160018154811015156118b357fe5b9060005260206000200160009054906101000a900473ffffffffffffffffffffffffffffffffffffffff1684600160046001850102018151811015156118f557fe5b9060200190602002019073ffffffffffffffffffffffffffffffffffffffff16908173ffffffffffffffffffffffffffffffffffffffff168152505060086000858381518110151561194357fe5b9060200190602002015173ffffffffffffffffffffffffffffffffffffffff1673ffffffffffffffffffffffffffffffffffffffff168152602001908152602001600020600801600281548110151561199857fe5b9060005260206000200160009054906101000a900473ffffffffffffffffffffffffffffffffffffffff1684600260046001850102018151811015156119da57fe5b9060200190602002019073ffffffffffffffffffffffffffffffffffffffff16908173ffffffffffffffffffffffffffffffffffffffff1681525050600860008583815181101515611a2857fe5b9060200190602002015173ffffffffffffffffffffffffffffffffffffffff1673ffffffffffffffffffffffffffffffffffffffff1681526020019081526020016000206008016003815481101515611a7d57fe5b9060005260206000200160009054906101000a900473ffffffffffffffffffffffffffffffffffffffff168460036004600185010201815181101515611abf57fe5b9060200190602002019073ffffffffffffffffffffffffffffffffffffffff16908173ffffffffffffffffffffffffffffffffffffffff1681525050611b23565b600091508381815181101515611b1257fe5b906020019060200201519250611b30565b80806001019150506116fb565b5080151515611ba7576040517f08c379a00000000000000000000000000000000000000000000000000000000081526004018080602001828103825260108152602001807f4e6f20467265652052656665727265720000000000000000000000000000000081525060200191505060405180910390fd5b8193505050505b919050565b611bbb612fca565b5060006006805490509050600081600354811515611bd557fe5b0490506000606482601402811515611be957fe5b04820390506000606483600a02811515611bff57fe5b0490506000606484600a02811515611c1357fe5b04905060008090505b600680549050811015611f1557600073ffffffffffffffffffffffffffffffffffffffff16600682815481101515611c5057fe5b9060005260206000200160009054906101000a900473ffffffffffffffffffffffffffffffffffffffff1673ffffffffffffffffffffffffffffffffffffffff161415611ca857836004600082825401925050819055505b600681815481101515611cb757fe5b9060005260206000200160009054906101000a900473ffffffffffffffffffffffffffffffffffffffff1673ffffffffffffffffffffffffffffffffffffffff1673ffffffffffffffffffffffffffffffffffffffff166108fc859081150290604051600060405180830381858888f19350505050158015611d3d573d6000803e3d6000fd5b508360096000600684815481101515611d5257fe5b9060005260206000200160009054906101000a900473ffffffffffffffffffffffffffffffffffffffff1673ffffffffffffffffffffffffffffffffffffffff1673ffffffffffffffffffffffffffffffffffffffff16815260200190815260200160002060050160008282540192505081905550600060086000600684815481101515611ddc57fe5b9060005260206000200160009054906101000a900473ffffffffffffffffffffffffffffffffffffffff1673ffffffffffffffffffffffffffffffffffffffff1673ffffffffffffffffffffffffffffffffffffffff16815260200190815260200160002060010160009054906101000a900473ffffffffffffffffffffffffffffffffffffffff16905083600a60008373ffffffffffffffffffffffffffffffffffffffff1673ffffffffffffffffffffffffffffffffffffffff1681526020019081526020016000206000016000828254019250508190555082600a60008373ffffffffffffffffffffffffffffffffffffffff1673ffffffffffffffffffffffffffffffffffffffff16815260200190815260200160002060010160008282540192505081905550508080600101915050611c1c565b50600060038190555060068054905083026005600082825401925050819055505050505050565b6000600354905090565b600a600860003373ffffffffffffffffffffffffffffffffffffffff1673ffffffffffffffffffffffffffffffffffffffff1681526020019081526020016000206005015410151515612001576040517f08c379a000000000000000000000000000000000000000000000000000000000815260040180806020018281038252601a8152602001807f796f752063616e6e6f7420776974686472617720616d6f756e7400000000000081525060200191505060405180910390fd5b3373ffffffffffffffffffffffffffffffffffffffff1673ffffffffffffffffffffffffffffffffffffffff166108fc600a60003373ffffffffffffffffffffffffffffffffffffffff1673ffffffffffffffffffffffffffffffffffffffff168152602001908152602001600020600101549081150290604051600060405180830381858888f1935050505015801561209f573d6000803e3d6000fd5b506000600a60003373ffffffffffffffffffffffffffffffffffffffff1673ffffffffffffffffffffffffffffffffffffffff16815260200190815260200160002060010181905550565b60055481565b600060086000600b600085815260200190815260200160002060009054906101000a900473ffffffffffffffffffffffffffffffffffffffff1673ffffffffffffffffffffffffffffffffffffffff1673ffffffffffffffffffffffffffffffffffffffff168152602001908152602001600020600501549050919050565b60045481565b6060600a6040519080825280602002602001820160405280156121a75781602001602082028038833980820191505090505b509050600060086000600b600086815260200190815260200160002060009054906101000a900473ffffffffffffffffffffffffffffffffffffffff1673ffffffffffffffffffffffffffffffffffffffff1673ffffffffffffffffffffffffffffffffffffffff16815260200190815260200160002060060154905060008090505b600a81101561234457600082141561224157612344565b600b600083815260200190815260200160002060009054906101000a900473ffffffffffffffffffffffffffffffffffffffff16838281518110151561228357fe5b9060200190602002019073ffffffffffffffffffffffffffffffffffffffff16908173ffffffffffffffffffffffffffffffffffffffff168152505060086000600b600085815260200190815260200160002060009054906101000a900473ffffffffffffffffffffffffffffffffffffffff1673ffffffffffffffffffffffffffffffffffffffff1673ffffffffffffffffffffffffffffffffffffffff168152602001908152602001600020600601549150808060010191505061222a565b508160086000600b600087815260200190815260200160002060009054906101000a900473ffffffffffffffffffffffffffffffffffffffff1673ffffffffffffffffffffffffffffffffffffffff1673ffffffffffffffffffffffffffffffffffffffff16815260200190815260200160002060070190805190602001906123ce929190615c33565b50505050565b600a6020528060005260406000206000915090508060000154908060010154905082565b60035481565b60006064600860078581548110151561241357fe5b90600052602060002001540281151561242857fe5b049050600060648260140281151561243c57fe5b04905060008183039050612491600860008673ffffffffffffffffffffffffffffffffffffffff1673ffffffffffffffffffffffffffffffffffffffff16815260200190815260200160002060000154612175565b6060600a6040519080825280602002602001820160405280156124c35781602001602082028038833980820191505090505b509050600860008673ffffffffffffffffffffffffffffffffffffffff1673ffffffffffffffffffffffffffffffffffffffff16815260200190815260200160002060070180548060200260200160405190810160405280929190818152602001828054801561258857602002820191906000526020600020905b8160009054906101000a900473ffffffffffffffffffffffffffffffffffffffff1673ffffffffffffffffffffffffffffffffffffffff168152602001906001019080831161253e575b5050505050905060008090505b600a8110156128c557600073ffffffffffffffffffffffffffffffffffffffff1682828151811015156125c457fe5b9060200190602002015173ffffffffffffffffffffffffffffffffffffffff1614156125ff57826004600082825401925050819055506128c5565b6001810160086000848481518110151561261557fe5b9060200190602002015173ffffffffffffffffffffffffffffffffffffffff1673ffffffffffffffffffffffffffffffffffffffff16815260200190815260200160002060050154101515612840578260096000848481518110151561267757fe5b9060200190602002015173ffffffffffffffffffffffffffffffffffffffff1673ffffffffffffffffffffffffffffffffffffffff16815260200190815260200160002060040160008282540192505081905550606485600a028115156126da57fe5b04600a600084848151811015156126ed57fe5b9060200190602002015173ffffffffffffffffffffffffffffffffffffffff1673ffffffffffffffffffffffffffffffffffffffff16815260200190815260200160002060000160008282540192505081905550606485600a0281151561275057fe5b04600a6000848481518110151561276357fe5b9060200190602002015173ffffffffffffffffffffffffffffffffffffffff1673ffffffffffffffffffffffffffffffffffffffff1681526020019081526020016000206001016000828254019250508190555081818151811015156127c557fe5b9060200190602002015173ffffffffffffffffffffffffffffffffffffffff1673ffffffffffffffffffffffffffffffffffffffff166108fc849081150290604051600060405180830381858888f1935050505015801561282a573d6000803e3d6000fd5b50826005600082825401925050819055506128b8565b8260086000848481518110151561285357fe5b9060200190602002015173ffffffffffffffffffffffffffffffffffffffff1673ffffffffffffffffffffffffffffffffffffffff168152602001908152602001600020600b0160008282540192505081905550826004600082825401925050819055505b8080600101915050612595565b50505050505050565b6000809054906101000a900473ffffffffffffffffffffffffffffffffffffffff1673ffffffffffffffffffffffffffffffffffffffff163373ffffffffffffffffffffffffffffffffffffffff16141515612992576040517f08c379a00000000000000000000000000000000000000000000000000000000081526004018080602001828103825260118152602001807f796f7520617265206e6f74206f776e657200000000000000000000000000000081525060200191505060405180910390fd5b6000809054906101000a900473ffffffffffffffffffffffffffffffffffffffff1673ffffffffffffffffffffffffffffffffffffffff1673ffffffffffffffffffffffffffffffffffffffff166108fc6004549081150290604051600060405180830381858888f19350505050158015612a11573d6000803e3d6000fd5b506004546005600082825401925050819055506000600481905550565b60006001600860008473ffffffffffffffffffffffffffffffffffffffff1673ffffffffffffffffffffffffffffffffffffffff16815260200190815260200160002060050154019050600081118015612a895750600a8111155b1515612afd576040517f08c379a000000000000000000000000000000000000000000000000000000000815260040180806020018281038252600f8152602001807f496e636f7272656374206c6576656c000000000000000000000000000000000081525060200191505060405180910390fd5b600781815481101515612b0c57fe5b9060005260206000200154600a60008473ffffffffffffffffffffffffffffffffffffffff1673ffffffffffffffffffffffffffffffffffffffff1681526020019081526020016000206001015410151515612bd0576040517f08c379a000000000000000000000000000000000000000000000000000000000815260040180806020018281038252600f8152602001807f496e636f72726563742056616c7565000000000000000000000000000000000081525060200191505060405180910390fd5b600060646014600784815481101515612be557fe5b906000526020600020015402811515612bfa57fe5b0490506000600860008573ffffffffffffffffffffffffffffffffffffffff1673ffffffffffffffffffffffffffffffffffffffff16815260200190815260200160002060010160009054906101000a900473ffffffffffffffffffffffffffffffffffffffff169050606482601402811515612c7357fe5b048203600960008373ffffffffffffffffffffffffffffffffffffffff1673ffffffffffffffffffffffffffffffffffffffff16815260200190815260200160002060020160008282540192505081905550606482600a02811515612cd457fe5b04600a60008373ffffffffffffffffffffffffffffffffffffffff1673ffffffffffffffffffffffffffffffffffffffff16815260200190815260200160002060000160008282540192505081905550606482600a02811515612d3357fe5b04600a60008373ffffffffffffffffffffffffffffffffffffffff1673ffffffffffffffffffffffffffffffffffffffff16815260200190815260200160002060010160008282540192505081905550600860008573ffffffffffffffffffffffffffffffffffffffff1673ffffffffffffffffffffffffffffffffffffffff16815260200190815260200160002060010160009054906101000a900473ffffffffffffffffffffffffffffffffffffffff1673ffffffffffffffffffffffffffffffffffffffff1673ffffffffffffffffffffffffffffffffffffffff166108fc606484601402811515612e2457fe5b0484039081150290604051600060405180830381858888f19350505050158015612e52573d6000803e3d6000fd5b50606482601402811515612e6257fe5b048203600560008282540192505081905550600783815481101515612e8357fe5b9060005260206000200154600a60008673ffffffffffffffffffffffffffffffffffffffff1673ffffffffffffffffffffffffffffffffffffffff168152602001908152602001600020600101600082825403925050819055506001600860008673ffffffffffffffffffffffffffffffffffffffff1673ffffffffffffffffffffffffffffffffffffffff16815260200190815260200160002060050160008282540192505081905550612f3883856123fe565b8373ffffffffffffffffffffffffffffffffffffffff167f94ea718a6517c74ee4da32e6297595705048e7f1ca05b3133069c756cff40421846040518082815260200191505060405180910390a250505050565b600681815481101515612f9b57fe5b906000526020600020016000915054906101000a900473ffffffffffffffffffffffffffffffffffffffff1681565b600060606064604051908082528060200260200182016040528015612ffe5781602001602082028038833980820191505090505b50905060008060009050600191505b6001548211151561319757600460086000600b600086815260200190815260200160002060009054906101000a900473ffffffffffffffffffffffffffffffffffffffff1673ffffffffffffffffffffffffffffffffffffffff1673ffffffffffffffffffffffffffffffffffffffff168152602001908152602001600020600801805490501480156131005750600073ffffffffffffffffffffffffffffffffffffffff16600b600084815260200190815260200160002060009054906101000a900473ffffffffffffffffffffffffffffffffffffffff1673ffffffffffffffffffffffffffffffffffffffff1614155b1561318a57600b600083815260200190815260200160002060009054906101000a900473ffffffffffffffffffffffffffffffffffffffff16838280600101935081518110151561314d57fe5b9060200190602002019073ffffffffffffffffffffffffffffffffffffffff16908173ffffffffffffffffffffffffffffffffffffffff16815250505b818060010192505061300d565b82600690805190602001906131ad929190615c33565b5080935050505090565b6000809054906101000a900473ffffffffffffffffffffffffffffffffffffffff1681565b6000600154905090565b60086020528060005260406000206000915090508060000154908060010160009054906101000a900473ffffffffffffffffffffffffffffffffffffffff169080600201549080600301549080600401549080600501549080600601549080600a0160009054906101000a900460ff169080600b01549080600c0160009054906101000a900460ff1690508a565b60008060008060008060096000600b60008a815260200190815260200160002060009054906101000a900473ffffffffffffffffffffffffffffffffffffffff1673ffffffffffffffffffffffffffffffffffffffff1673ffffffffffffffffffffffffffffffffffffffff1681526020019081526020016000206000015460096000600b60008b815260200190815260200160002060009054906101000a900473ffffffffffffffffffffffffffffffffffffffff1673ffffffffffffffffffffffffffffffffffffffff1673ffffffffffffffffffffffffffffffffffffffff1681526020019081526020016000206001015460096000600b60008c815260200190815260200160002060009054906101000a900473ffffffffffffffffffffffffffffffffffffffff1673ffffffffffffffffffffffffffffffffffffffff1673ffffffffffffffffffffffffffffffffffffffff1681526020019081526020016000206002015460096000600b60008d815260200190815260200160002060009054906101000a900473ffffffffffffffffffffffffffffffffffffffff1673ffffffffffffffffffffffffffffffffffffffff1673ffffffffffffffffffffffffffffffffffffffff1681526020019081526020016000206003015460096000600b60008e815260200190815260200160002060009054906101000a900473ffffffffffffffffffffffffffffffffffffffff1673ffffffffffffffffffffffffffffffffffffffff1673ffffffffffffffffffffffffffffffffffffffff1681526020019081526020016000206004015460096000600b60008f815260200190815260200160002060009054906101000a900473ffffffffffffffffffffffffffffffffffffffff1673ffffffffffffffffffffffffffffffffffffffff1673ffffffffffffffffffffffffffffffffffffffff1681526020019081526020016000206005015495509550955095509550955091939550919395565b6000600960008373ffffffffffffffffffffffffffffffffffffffff1673ffffffffffffffffffffffffffffffffffffffff168152602001908152602001600020600001549050919050565b60096020528060005260406000206000915090508060000154908060010154908060020154908060030154908060040154908060050154905086565b6007818154811015156135ed57fe5b906000526020600020016000915090505481565b6060600680548060200260200160405190810160405280929190818152602001828054801561368557602002820191906000526020600020905b8160009054906101000a900473ffffffffffffffffffffffffffffffffffffffff1673ffffffffffffffffffffffffffffffffffffffff168152602001906001019080831161363b575b5050505050905090565b600060646002546032028115156136a257fe5b04905060006064600254601e028115156136b857fe5b049050600060646002546014028115156136ce57fe5b0490506064836014028115156136e057fe5b04830360096000600b60008a815260200190815260200160002060009054906101000a900473ffffffffffffffffffffffffffffffffffffffff1673ffffffffffffffffffffffffffffffffffffffff1673ffffffffffffffffffffffffffffffffffffffff1681526020019081526020016000206001016000828254019250508190555060648260140281151561377457fe5b04820360096000600b600089815260200190815260200160002060009054906101000a900473ffffffffffffffffffffffffffffffffffffffff1673ffffffffffffffffffffffffffffffffffffffff1673ffffffffffffffffffffffffffffffffffffffff1681526020019081526020016000206001016000828254019250508190555060648160140281151561380857fe5b04810360096000600b600088815260200190815260200160002060009054906101000a900473ffffffffffffffffffffffffffffffffffffffff1673ffffffffffffffffffffffffffffffffffffffff1673ffffffffffffffffffffffffffffffffffffffff16815260200190815260200160002060010160008282540192505081905550600b600087815260200190815260200160002060009054906101000a900473ffffffffffffffffffffffffffffffffffffffff1673ffffffffffffffffffffffffffffffffffffffff1673ffffffffffffffffffffffffffffffffffffffff166108fc60096000600b60008b815260200190815260200160002060009054906101000a900473ffffffffffffffffffffffffffffffffffffffff1673ffffffffffffffffffffffffffffffffffffffff1673ffffffffffffffffffffffffffffffffffffffff168152602001908152602001600020600101549081150290604051600060405180830381858888f19350505050158015613991573d6000803e3d6000fd5b50600b600086815260200190815260200160002060009054906101000a900473ffffffffffffffffffffffffffffffffffffffff1673ffffffffffffffffffffffffffffffffffffffff1673ffffffffffffffffffffffffffffffffffffffff166108fc60096000600b60008a815260200190815260200160002060009054906101000a900473ffffffffffffffffffffffffffffffffffffffff1673ffffffffffffffffffffffffffffffffffffffff1673ffffffffffffffffffffffffffffffffffffffff168152602001908152602001600020600101549081150290604051600060405180830381858888f19350505050158015613a96573d6000803e3d6000fd5b50600b600085815260200190815260200160002060009054906101000a900473ffffffffffffffffffffffffffffffffffffffff1673ffffffffffffffffffffffffffffffffffffffff1673ffffffffffffffffffffffffffffffffffffffff166108fc60096000600b600089815260200190815260200160002060009054906101000a900473ffffffffffffffffffffffffffffffffffffffff1673ffffffffffffffffffffffffffffffffffffffff1673ffffffffffffffffffffffffffffffffffffffff168152602001908152602001600020600101549081150290604051600060405180830381858888f19350505050158015613b9b573d6000803e3d6000fd5b50600160086000600b60008a815260200190815260200160002060009054906101000a900473ffffffffffffffffffffffffffffffffffffffff1673ffffffffffffffffffffffffffffffffffffffff1673ffffffffffffffffffffffffffffffffffffffff16815260200190815260200160002060030160008282540192505081905550600160086000600b600089815260200190815260200160002060009054906101000a900473ffffffffffffffffffffffffffffffffffffffff1673ffffffffffffffffffffffffffffffffffffffff1673ffffffffffffffffffffffffffffffffffffffff16815260200190815260200160002060030160008282540192505081905550600160086000600b600088815260200190815260200160002060009054906101000a900473ffffffffffffffffffffffffffffffffffffffff1673ffffffffffffffffffffffffffffffffffffffff1673ffffffffffffffffffffffffffffffffffffffff1681526020019081526020016000206003016000828254019250508190555060096000600b600087815260200190815260200160002060009054906101000a900473ffffffffffffffffffffffffffffffffffffffff1673ffffffffffffffffffffffffffffffffffffffff1673ffffffffffffffffffffffffffffffffffffffff1681526020019081526020016000206001015460096000600b600089815260200190815260200160002060009054906101000a900473ffffffffffffffffffffffffffffffffffffffff1673ffffffffffffffffffffffffffffffffffffffff1673ffffffffffffffffffffffffffffffffffffffff1681526020019081526020016000206001015460096000600b60008b815260200190815260200160002060009054906101000a900473ffffffffffffffffffffffffffffffffffffffff1673ffffffffffffffffffffffffffffffffffffffff1673ffffffffffffffffffffffffffffffffffffffff1681526020019081526020016000206001015401016005600082825401925050819055506000600281905550600060086000600b60008a815260200190815260200160002060009054906101000a900473ffffffffffffffffffffffffffffffffffffffff1673ffffffffffffffffffffffffffffffffffffffff1673ffffffffffffffffffffffffffffffffffffffff16815260200190815260200160002060010160009054906101000a900473ffffffffffffffffffffffffffffffffffffffff169050600060086000600b60008a815260200190815260200160002060009054906101000a900473ffffffffffffffffffffffffffffffffffffffff1673ffffffffffffffffffffffffffffffffffffffff1673ffffffffffffffffffffffffffffffffffffffff16815260200190815260200160002060010160009054906101000a900473ffffffffffffffffffffffffffffffffffffffff169050600060086000600b60008a815260200190815260200160002060009054906101000a900473ffffffffffffffffffffffffffffffffffffffff1673ffffffffffffffffffffffffffffffffffffffff1673ffffffffffffffffffffffffffffffffffffffff16815260200190815260200160002060010160009054906101000a900473ffffffffffffffffffffffffffffffffffffffff169050606486600a0281151561408057fe5b04600a60008573ffffffffffffffffffffffffffffffffffffffff1673ffffffffffffffffffffffffffffffffffffffff16815260200190815260200160002060000160008282540192505081905550606485600a028115156140df57fe5b04600a60008473ffffffffffffffffffffffffffffffffffffffff1673ffffffffffffffffffffffffffffffffffffffff16815260200190815260200160002060000160008282540192505081905550606484600a0281151561413e57fe5b04600a60008373ffffffffffffffffffffffffffffffffffffffff1673ffffffffffffffffffffffffffffffffffffffff16815260200190815260200160002060000160008282540192505081905550606486600a0281151561419d57fe5b04600a60008573ffffffffffffffffffffffffffffffffffffffff1673ffffffffffffffffffffffffffffffffffffffff16815260200190815260200160002060010160008282540192505081905550606485600a028115156141fc57fe5b04600a60008473ffffffffffffffffffffffffffffffffffffffff1673ffffffffffffffffffffffffffffffffffffffff16815260200190815260200160002060010160008282540192505081905550606484600a0281151561425b57fe5b04600a60008373ffffffffffffffffffffffffffffffffffffffff1673ffffffffffffffffffffffffffffffffffffffff16815260200190815260200160002060010160008282540192505081905550505050505050505050565b600760008154811015156142c657fe5b9060005260206000200154600a60008373ffffffffffffffffffffffffffffffffffffffff1673ffffffffffffffffffffffffffffffffffffffff1681526020019081526020016000206000015410151561468e576007600081548110151561432b57fe5b9060005260206000200154600a60008373ffffffffffffffffffffffffffffffffffffffff1673ffffffffffffffffffffffffffffffffffffffff168152602001908152602001600020600001600082825403925050819055506001600860008373ffffffffffffffffffffffffffffffffffffffff1673ffffffffffffffffffffffffffffffffffffffff16815260200190815260200160002060040160008282540192505081905550600060646050600760008154811015156143ec57fe5b90600052602060002001540281151561440157fe5b0490506000600860008473ffffffffffffffffffffffffffffffffffffffff1673ffffffffffffffffffffffffffffffffffffffff16815260200190815260200160002060010160009054906101000a900473ffffffffffffffffffffffffffffffffffffffff16905060646014830281151561447a57fe5b048203600960008373ffffffffffffffffffffffffffffffffffffffff1673ffffffffffffffffffffffffffffffffffffffff168152602001908152602001600020600301600082825401925050819055506064600a83028115156144db57fe5b04600a60008373ffffffffffffffffffffffffffffffffffffffff1673ffffffffffffffffffffffffffffffffffffffff168152602001908152602001600020600001600082825401925050819055506064600a830281151561453a57fe5b04600a60008373ffffffffffffffffffffffffffffffffffffffff1673ffffffffffffffffffffffffffffffffffffffff168152602001908152602001600020600101600082825401925050819055508073ffffffffffffffffffffffffffffffffffffffff1673ffffffffffffffffffffffffffffffffffffffff166108fc6064601485028115156145c957fe5b0484039081150290604051600060405180830381858888f193505050501580156145f7573d6000803e3d6000fd5b5060646014830281151561460757fe5b0482036005600082825401925050819055506064600a6007600081548110151561462d57fe5b90600052602060002001540281151561464257fe5b046002600082825401925050819055506064600a6007600081548110151561466657fe5b90600052602060002001540281151561467b57fe5b0460036000828254019250508190555050505b50565b60015481565b6000806000806000806146a8615cbd565b60086000600b60008b815260200190815260200160002060009054906101000a900473ffffffffffffffffffffffffffffffffffffffff1673ffffffffffffffffffffffffffffffffffffffff1673ffffffffffffffffffffffffffffffffffffffff1681526020019081526020016000206101a06040519081016040529081600082015481526020016001820160009054906101000a900473ffffffffffffffffffffffffffffffffffffffff1673ffffffffffffffffffffffffffffffffffffffff1673ffffffffffffffffffffffffffffffffffffffff16815260200160028201548152602001600382015481526020016004820154815260200160058201548152602001600682015481526020016007820180548060200260200160405190810160405280929190818152602001828054801561483e57602002820191906000526020600020905b8160009054906101000a900473ffffffffffffffffffffffffffffffffffffffff1673ffffffffffffffffffffffffffffffffffffffff16815260200190600101908083116147f4575b50505050508152602001600882018054806020026020016040519081016040528092919081815260200182805480156148cc57602002820191906000526020600020905b8160009054906101000a900473ffffffffffffffffffffffffffffffffffffffff1673ffffffffffffffffffffffffffffffffffffffff1681526020019060010190808311614882575b505050505081526020016009820180548060200260200160405190810160405280929190818152602001828054801561492457602002820191906000526020600020905b815481526020019060010190808311614910575b50505050508152602001600a820160009054906101000a900460ff16151515158152602001600b8201548152602001600c820160009054906101000a900460ff161515151581525050905080602001518160400151826080015183606001518460a001518561016001519650965096509650965096505091939550919395565b6000600254905090565b6000600554905090565b6149f633600b600084815260200190815260200160002060009054906101000a900473ffffffffffffffffffffffffffffffffffffffff16346154e3565b600080829050600460086000600b600087815260200190815260200160002060009054906101000a900473ffffffffffffffffffffffffffffffffffffffff1673ffffffffffffffffffffffffffffffffffffffff1673ffffffffffffffffffffffffffffffffffffffff16815260200190815260200160002060080180549050101515614b0257614aba600b600085815260200190815260200160002060009054906101000a900473ffffffffffffffffffffffffffffffffffffffff16611348565b9150600860008373ffffffffffffffffffffffffffffffffffffffff1673ffffffffffffffffffffffffffffffffffffffff1681526020019081526020016000206000015490505b60086000600b600084815260200190815260200160002060009054906101000a900473ffffffffffffffffffffffffffffffffffffffff1673ffffffffffffffffffffffffffffffffffffffff1673ffffffffffffffffffffffffffffffffffffffff1681526020019081526020016000206008013390806001815401808255809150509060018203906000526020600020016000909192909190916101000a81548173ffffffffffffffffffffffffffffffffffffffff021916908373ffffffffffffffffffffffffffffffffffffffff1602179055505060086000600b600084815260200190815260200160002060009054906101000a900473ffffffffffffffffffffffffffffffffffffffff1673ffffffffffffffffffffffffffffffffffffffff1673ffffffffffffffffffffffffffffffffffffffff168152602001908152602001600020600901600860003373ffffffffffffffffffffffffffffffffffffffff1673ffffffffffffffffffffffffffffffffffffffff16815260200190815260200160002060000154908060018154018082558091505090600182039060005260206000200160009091929091909150555080600860003373ffffffffffffffffffffffffffffffffffffffff1673ffffffffffffffffffffffffffffffffffffffff16815260200190815260200160002060060181905550505050565b606060086000600b600085815260200190815260200160002060009054906101000a900473ffffffffffffffffffffffffffffffffffffffff1673ffffffffffffffffffffffffffffffffffffffff1673ffffffffffffffffffffffffffffffffffffffff168152602001908152602001600020600801805480602002602001604051908101604052809291908181526020018280548015614dff57602002820191906000526020600020905b8160009054906101000a900473ffffffffffffffffffffffffffffffffffffffff1673ffffffffffffffffffffffffffffffffffffffff1681526020019060010190808311614db5575b50505050509050919050565b600860003373ffffffffffffffffffffffffffffffffffffffff1673ffffffffffffffffffffffffffffffffffffffff1681526020019081526020016000206005015481111515614ec4576040517f08c379a00000000000000000000000000000000000000000000000000000000081526004018080602001828103825260178152602001807f416c726561647920707572636861736564206c6576656c00000000000000000081525060200191505060405180910390fd5b600860003373ffffffffffffffffffffffffffffffffffffffff1673ffffffffffffffffffffffffffffffffffffffff168152602001908152602001600020600a0160009054906101000a900460ff161515614f88576040517f08c379a000000000000000000000000000000000000000000000000000000000815260040180806020018281038252600e8152602001807f55736572206e6f7420657869737400000000000000000000000000000000000081525060200191505060405180910390fd5b600081118015614f995750600a8111155b151561500d576040517f08c379a000000000000000000000000000000000000000000000000000000000815260040180806020018281038252600f8152602001807f496e636f7272656374206c6576656c000000000000000000000000000000000081525060200191505060405180910390fd5b60078181548110151561501c57fe5b90600052602060002001543414151561509d576040517f08c379a000000000000000000000000000000000000000000000000000000000815260040180806020018281038252600f8152602001807f496e636f72726563742056616c7565000000000000000000000000000000000081525060200191505060405180910390fd5b60018103600860003373ffffffffffffffffffffffffffffffffffffffff1673ffffffffffffffffffffffffffffffffffffffff1681526020019081526020016000206005015414151561513c576040517f08c379a0000000000000000000000000000000000000000000000000000000008152600401808060200182810382526028815260200180615d846028913960400191505060405180910390fd5b60006064601460078481548110151561515157fe5b90600052602060002001540281151561516657fe5b0490506000600860003373ffffffffffffffffffffffffffffffffffffffff1673ffffffffffffffffffffffffffffffffffffffff16815260200190815260200160002060010160009054906101000a900473ffffffffffffffffffffffffffffffffffffffff1690506064826014028115156151df57fe5b048203600960008373ffffffffffffffffffffffffffffffffffffffff1673ffffffffffffffffffffffffffffffffffffffff16815260200190815260200160002060020160008282540192505081905550606482600a0281151561524057fe5b04600a60008373ffffffffffffffffffffffffffffffffffffffff1673ffffffffffffffffffffffffffffffffffffffff16815260200190815260200160002060000160008282540192505081905550606482600a0281151561529f57fe5b04600a60008373ffffffffffffffffffffffffffffffffffffffff1673ffffffffffffffffffffffffffffffffffffffff16815260200190815260200160002060010160008282540192505081905550600860003373ffffffffffffffffffffffffffffffffffffffff1673ffffffffffffffffffffffffffffffffffffffff16815260200190815260200160002060010160009054906101000a900473ffffffffffffffffffffffffffffffffffffffff1673ffffffffffffffffffffffffffffffffffffffff1673ffffffffffffffffffffffffffffffffffffffff166108fc60648460140281151561539057fe5b0484039081150290604051600060405180830381858888f193505050501580156153be573d6000803e3d6000fd5b506064826014028115156153ce57fe5b048203600560008282540192505081905550600a6001600860003373ffffffffffffffffffffffffffffffffffffffff1673ffffffffffffffffffffffffffffffffffffffff16815260200190815260200160002060050154011015615480576001600860003373ffffffffffffffffffffffffffffffffffffffff1673ffffffffffffffffffffffffffffffffffffffff168152602001908152602001600020600501600082825401925050819055505b61548a83336123fe565b3373ffffffffffffffffffffffffffffffffffffffff167f94ea718a6517c74ee4da32e6297595705048e7f1ca05b3133069c756cff40421846040518082815260200191505060405180910390a2505050565b60025481565b6000600860008573ffffffffffffffffffffffffffffffffffffffff1673ffffffffffffffffffffffffffffffffffffffff1681526020019081526020016000206000015414151561559d576040517f08c379a00000000000000000000000000000000000000000000000000000000081526004018080602001828103825260178152602001807f557365722061726c65616479207265676973746572656400000000000000000081525060200191505060405180910390fd5b6000600860008473ffffffffffffffffffffffffffffffffffffffff1673ffffffffffffffffffffffffffffffffffffffff1681526020019081526020016000206000015414151515615658576040517f08c379a00000000000000000000000000000000000000000000000000000000081526004018080602001828103825260168152602001807f496e7669746572206e6f7420726567697374657265640000000000000000000081525060200191505060405180910390fd5b6007600081548110151561566857fe5b906000526020600020015481101515156156ea576040517f08c379a00000000000000000000000000000000000000000000000000000000081526004018080602001828103825260128152602001807f496e73756666696369656e742066756e6473000000000000000000000000000081525060200191505060405180910390fd5b6064600a600760008154811015156156fe57fe5b90600052602060002001540281151561571357fe5b046002600082825401925050819055506064600a6007600081548110151561573757fe5b90600052602060002001540281151561574c57fe5b046003600082825401925050819055506000606460506007600081548110151561577257fe5b90600052602060002001540281151561578757fe5b04905060646014820281151561579957fe5b048103600960008573ffffffffffffffffffffffffffffffffffffffff1673ffffffffffffffffffffffffffffffffffffffff168152602001908152602001600020600001600082825401925050819055506064600a82028115156157fa57fe5b04600a60008573ffffffffffffffffffffffffffffffffffffffff1673ffffffffffffffffffffffffffffffffffffffff168152602001908152602001600020600001600082825401925050819055506064600a820281151561585957fe5b04600a60008573ffffffffffffffffffffffffffffffffffffffff1673ffffffffffffffffffffffffffffffffffffffff16815260200190815260200160002060010160008282540192505081905550600860008473ffffffffffffffffffffffffffffffffffffffff1673ffffffffffffffffffffffffffffffffffffffff168152602001908152602001600020600201600081548092919060010191905055508273ffffffffffffffffffffffffffffffffffffffff1673ffffffffffffffffffffffffffffffffffffffff166108fc60646014840281151561593a57fe5b0483039081150290604051600060405180830381858888f19350505050158015615968573d6000803e3d6000fd5b5060646014820281151561597857fe5b048103600560008282540192505081905550615994848461599a565b50505050565b600160008154809291906001019190505550600154600860008473ffffffffffffffffffffffffffffffffffffffff1673ffffffffffffffffffffffffffffffffffffffff1681526020019081526020016000206000018190555080600860008473ffffffffffffffffffffffffffffffffffffffff1673ffffffffffffffffffffffffffffffffffffffff16815260200190815260200160002060010160006101000a81548173ffffffffffffffffffffffffffffffffffffffff021916908373ffffffffffffffffffffffffffffffffffffffff16021790555081600b6000600154815260200190815260200160002060006101000a81548173ffffffffffffffffffffffffffffffffffffffff021916908373ffffffffffffffffffffffffffffffffffffffff1602179055506001600860008473ffffffffffffffffffffffffffffffffffffffff1673ffffffffffffffffffffffffffffffffffffffff168152602001908152602001600020600a0160006101000a81548160ff0219169083151502179055506000600860008473ffffffffffffffffffffffffffffffffffffffff1673ffffffffffffffffffffffffffffffffffffffff168152602001908152602001600020600c0160006101000a81548160ff0219169083151502179055506000600860003373ffffffffffffffffffffffffffffffffffffffff1673ffffffffffffffffffffffffffffffffffffffff168152602001908152602001600020600501819055508073ffffffffffffffffffffffffffffffffffffffff168273ffffffffffffffffffffffffffffffffffffffff167fcc0bec1447060c88cdc5a739cf29cfa26c453574dd3f5b9e4dcc317d6401cb1c6001546040518082815260200191505060405180910390a35050565b828054828255906000526020600020908101928215615cac579160200282015b82811115615cab5782518260006101000a81548173ffffffffffffffffffffffffffffffffffffffff021916908373ffffffffffffffffffffffffffffffffffffffff16021790555091602001919060010190615c53565b5b509050615cb99190615d40565b5090565b6101a06040519081016040528060008152602001600073ffffffffffffffffffffffffffffffffffffffff1681526020016000815260200160008152602001600081526020016000815260200160008152602001606081526020016060815260200160608152602001600015158152602001600081526020016000151581525090565b615d8091905b80821115615d7c57600081816101000a81549073ffffffffffffffffffffffffffffffffffffffff021916905550600101615d46565b5090565b9056fe596f7520686176656e2774207075726368617365642070726576696f7573206c6576656c20796574a165627a7a7230582075c1e20271e5a8999331ba35425bcad1e5be0c529d9a4ca904ff13cf334ec2620029",
  "source": "//SPDX-License-Identifier: UNLICENSED\npragma solidity >=0.4.20;\n\ncontract MLM {\n    address public ownerWallet;\n    uint256 public totalUsers;\n    uint256 public rewardWallet;\n    uint256 public levelRewardWallet;\n    uint256 public distributionWallet;\n    uint256 public totalAmountDistributed;\n    address[] public levelWinners;\n    \n    struct User {\n        uint256 id;\n        address inviter;\n        uint256 totalReferals;\n        uint256 totalWins;\n        uint256 totalRecycles;\n        uint256 levelsPurchased;\n        uint256 upline;\n        address[] uplines;\n        address[] referral;\n        uint256[] referralsIds;\n        bool isExist;\n        uint256 loss;\n        bool getLevelReward;\n    }\n \n    struct UserIncomes{\n        uint256 directIncome;\n        uint256 rewardIncome;\n        uint256 levelIncome;\n        uint256 recycleIncome;\n        uint256 upgradeIncome;\n        uint256 levelRewardIncome;\n    }\n \n    struct UserFunds{\n        uint256 recycleFund;\n        uint256 levelFund;\n    }\n\n\n    uint256[] public levels;\n   \n    mapping(address => User) public users;\n    mapping(address => UserIncomes) public usersIncomes;\n    mapping(address => UserFunds) public usersFund;\n    // mapping(address => UserLevels) public userLevels;\n\n    mapping(uint256 => address) public users_ids;\n    \n    event Register(address indexed addr, address indexed inviter, uint256 id);\n    event BuyLevel(\n        address indexed addr,\n        address indexed upline,\n        uint8 level\n    );\n    event buyLevelEvent(address indexed _user, uint256 _level);\n\n    constructor() public{\n        totalUsers = 0;\n        ownerWallet = msg.sender;\n        levels.push(1000000000);\n        levels.push(500000000);\n        levels.push(1000000000);\n        levels.push(1500000000);\n        levels.push(2000000000);\n        levels.push(2500000000);\n        levels.push(3000000000);\n        levels.push(3500000000);\n        levels.push(4000000000);\n        levels.push(4500000000);\n        levels.push(5000000000);\n        newUser(msg.sender, address(0));\n        users[msg.sender].levelsPurchased = 10;\n        users[msg.sender].referral= new address[](0);\n        users[msg.sender].upline = 0;\n        users[msg.sender].uplines = new address[](0);\n    }\n\n    function newUser(address _addr, address _inviter) private {\n        totalUsers++;\n        users[_addr].id = totalUsers;\n        users[_addr].inviter = _inviter;\n        users_ids[totalUsers] = _addr;\n        users[_addr].isExist = true;\n        users[_addr].getLevelReward = false;\n        users[msg.sender].levelsPurchased = 0;\n        emit Register(_addr, _inviter, totalUsers);\n\n    }\n\n    function _register(\n        address _user,\n        address _inviter,\n        uint256 _value\n    ) private {\n        require(users[_user].id == 0, \"User arleady registered\");\n        require(users[_inviter].id != 0, \"Inviter not registered\");\n        require(_value >= levels[0], \"Insufficient funds\");\n\n        \n        rewardWallet += (levels[0] * 10) / 100;\n        levelRewardWallet += (levels[0] * 10) / 100;\n\n        uint256 referalMoney = (levels[0] * 80) / 100;\n        usersIncomes[_inviter].directIncome += (referalMoney - (referalMoney * 20) / 100);\n        usersFund[_inviter].recycleFund += (referalMoney * 10) / 100;\n        usersFund[_inviter].levelFund += (referalMoney * 10) / 100;\n         users[_inviter].totalReferals++;\n        // setUplines(users[_inviter].id);\n        // setUplines(users[msg.sender].id);\n        // if(usersIncomes[_inviter].recycleFund>=levels[0])\n        // recycleId(_inviter);\n        \n        // if((usersIncomes[_inviter].levelFund>=levels[users[_inviter].levelsPurchased+1]) && users[_inviter].levelsPurchased < 10)\n        // autoBuyLevel(_inviter);\n        \n        address(uint256(_inviter)).transfer(referalMoney - (referalMoney * 20) / 100);\n\n        totalAmountDistributed += (referalMoney - (referalMoney * 20) / 100);\n        \n        newUser(_user, _inviter);\n    }\n\n    function register(uint256  _inviter_id) external payable {\n        // uint256 tempReferrerID = _inviter_id;\n        _register(msg.sender, users_ids[_inviter_id], msg.value);\n        address add;\n        uint256 id = _inviter_id;\n        if(users[users_ids[_inviter_id]].referral.length >= 4) {\n            add = findFreeReferrer(users_ids[_inviter_id]);\n            id = users[add].id;\n        }\n        \n            // if( users[users_ids[id]].referral.length==4){\n            //     levelWinners.push(users_ids[id]);\n            // }\n        \n        users[users_ids[id]].referral.push(msg.sender);\n        users[users_ids[id]].referralsIds.push(users[msg.sender].id);\n        users[msg.sender].upline =id;\n       \n    }\n\n    function buyLevel(uint256 _level) public payable {\n        require( _level > users[msg.sender].levelsPurchased,\"Already purchased level\" );\n        require(users[msg.sender].isExist, \"User not exist\");\n        require(_level > 0 && _level <= 10, \"Incorrect level\");\n        require(msg.value == levels[_level], \"Incorrect Value\");\n        require( users[msg.sender].levelsPurchased == _level - 1,\"You haven't purchased previous level yet\");\n      \n        uint256 upgradeAmount = (levels[_level] * 20) / 100;\n        address _inviter = users[msg.sender].inviter;\n        usersIncomes[_inviter].levelIncome += (upgradeAmount -(20 * upgradeAmount) / 100);\n        usersFund[_inviter].recycleFund +=(10 * upgradeAmount) /100;\n        usersFund[_inviter].levelFund += (10 * upgradeAmount) / 100;\n        // if(usersIncomes[_inviter].recycleFund>=levels[0])\n        // recycleId(_inviter);\n        \n        // if((usersIncomes[_inviter].levelFund>=levels[users[_inviter].levelsPurchased+1]) && users[_inviter].levelsPurchased < 10)\n        // autoBuyLevel(_inviter);\n\n        address(uint256(users[msg.sender].inviter)).transfer(\n            upgradeAmount - (20 * upgradeAmount) / 100\n        );\n\n        totalAmountDistributed += (upgradeAmount - (20 * upgradeAmount) / 100);\n\n        if (users[msg.sender].levelsPurchased + 1 < 10)\n            users[msg.sender].levelsPurchased += 1;\n\n        distributeLevelUpgradeAmount(_level, msg.sender);\n       \n        emit buyLevelEvent(msg.sender, _level);\n    }\n\n    function autoBuyLevel(address _user) public {\n\n        uint256 _level = users[_user].levelsPurchased + 1;\n        require(_level > 0 && _level <= 10, \"Incorrect level\");\n        require( usersFund[_user].levelFund >= levels[_level],\"Incorrect Value\");\n     \n        uint256 upgradeAmount = (levels[_level] * 20) / 100;\n        address _inviter= users[_user].inviter;\n        usersIncomes[_inviter].levelIncome += (upgradeAmount -(20 * upgradeAmount) /100);\n        usersFund[_inviter].recycleFund +=(10 * upgradeAmount) /100;\n        usersFund[_inviter].levelFund +=(10 * upgradeAmount) /100;\n        \n        // if(usersIncomes[_inviter].recycleFund>=levels[0])\n        // recycleId(_inviter);\n        \n        // if((usersIncomes[_inviter].levelFund>=levels[users[_inviter].levelsPurchased+1]) && users[_inviter].levelsPurchased < 10)\n        // autoBuyLevel(_inviter);\n\n        address(uint256(users[_user].inviter)).transfer(\n            (upgradeAmount - (20 * upgradeAmount) / 100)\n        );\n\n        totalAmountDistributed += (upgradeAmount - (20 * upgradeAmount) / 100);\n        usersFund[_user].levelFund -= levels[_level];\n        users[_user].levelsPurchased += 1;\n\n         //level distribution is done\n        distributeLevelUpgradeAmount(_level,_user);\n\n        emit buyLevelEvent(_user, _level);\n    }\n\n    function recycleId(address _user) public {\n        if(usersFund[_user].recycleFund >= levels[0]){\n            usersFund[_user].recycleFund -= levels[0];\n            users[_user].totalRecycles+=1;\n\n            uint256 referalMoney = (levels[0] * 80) / 100;\n\n            address _inviter = users[_user].inviter;\n            usersIncomes[_inviter].recycleIncome += (referalMoney -(referalMoney * 20) /100);\n            usersFund[_inviter].recycleFund += (referalMoney * 10) / 100;\n            usersFund[_inviter].levelFund += (referalMoney * 10) / 100;\n\n            address(uint256(_inviter)).transfer(referalMoney - (referalMoney * 20) / 100);\n            totalAmountDistributed += (referalMoney -(referalMoney * 20) /100);\n\n            rewardWallet += (levels[0] * 10) / 100;\n            levelRewardWallet += (levels[0] * 10) / 100;\n            \n            // if(usersIncomes[_inviter].recycleFund>=levels[0])\n            // recycleId(_inviter);\n        \n            // if((usersIncomes[_inviter].levelFund>=levels[users[_inviter].levelsPurchased+1]) && users[_inviter].levelsPurchased < 10)\n            // autoBuyLevel(_inviter);\n        }\n    }\n\n    function distributeReward(\n        uint256 _winner1,\n        uint256 _winner2,\n        uint256 _winner3\n    ) public {\n     \n        uint256 first = (50 * rewardWallet) / 100;\n        uint256 second = (30 * rewardWallet) / 100;\n        uint256 third = (20 * rewardWallet) / 100;\n\n        usersIncomes[users_ids[_winner1]].rewardIncome += (first - (20 * first) / 100);\n        usersIncomes[users_ids[_winner2]].rewardIncome += (second - (20 * second) / 100);\n        usersIncomes[users_ids[_winner3]].rewardIncome += (third - (20 * third) / 100);\n\n        address(uint256(users_ids[_winner1])).transfer(usersIncomes[users_ids[_winner1]].rewardIncome);\n        address(uint256(users_ids[_winner2])).transfer(usersIncomes[users_ids[_winner2]].rewardIncome);\n        address(uint256(users_ids[_winner3])).transfer(usersIncomes[users_ids[_winner3]].rewardIncome);\n\n        users[users_ids[_winner1]].totalWins += 1;\n        users[users_ids[_winner2]].totalWins += 1;\n        users[users_ids[_winner3]].totalWins += 1;\n\n        totalAmountDistributed += (usersIncomes[users_ids[_winner1]].rewardIncome + \n        usersIncomes[users_ids[_winner2]].rewardIncome + usersIncomes[users_ids[_winner3]].rewardIncome);\n\n        rewardWallet = 0;\n        \n        address _inviter1 = users[users_ids[_winner1]].inviter;\n        address _inviter2 = users[users_ids[_winner2]].inviter;\n        address _inviter3 = users[users_ids[_winner3]].inviter;\n        \n        usersFund[_inviter1].recycleFund += (10 * first) / 100;\n        usersFund[_inviter2].recycleFund += (10 * second) / 100;\n        usersFund[_inviter3].recycleFund += (10 * third) / 100;\n\n        usersFund[_inviter1].levelFund += (10 * first) / 100;\n        usersFund[_inviter2].levelFund += (10 * second) / 100;\n        usersFund[_inviter3].levelFund += (10 * third) / 100;\n\n        // if(usersIncomes[_inviter1].recycleFund>=levels[0])\n        // recycleId(_inviter2);\n        \n        // if((usersIncomes[_inviter1].levelFund >= levels[users[_inviter1].levelsPurchased+1]) && (users[_inviter1].levelsPurchased < 10))\n        // autoBuyLevel(_inviter1);\n\n        // if(usersIncomes[_inviter2].recycleFund>=levels[0])\n        // recycleId(_inviter2);\n        \n        // if((usersFund[_inviter2].levelFund >= levels[users[_inviter2].levelsPurchased+1]) && (users[_inviter2].levelsPurchased < 10))\n        // autoBuyLevel(_inviter2);\n\n        // if(usersIncomes[_inviter3].recycleFund>=levels[0])\n        // recycleId(_inviter3);\n        \n        // if((usersFund[_inviter3].levelFund >= levels[users[_inviter3].levelsPurchased+1]) && (users[_inviter3].levelsPurchased < 10))\n        // autoBuyLevel(_inviter3);\n\n    }\n\n\n    function distributeLevelReward() public{\n        setLevelWinners();\n        uint256 size = levelWinners.length;\n        uint256 totalprice = levelRewardWallet/size;\n        uint256 price = totalprice - (20*totalprice)/100;\n        uint256 recyclePrice = (10*totalprice)/100;\n        uint256 levelPrice = (10*totalprice)/100;\n        for(uint256 i=0;i<levelWinners.length;i++){\n            if(levelWinners[i]==address(0)){\n                distributionWallet += price;\n            }\n            address(uint256(levelWinners[i])).transfer(price);\n            usersIncomes[levelWinners[i]].levelRewardIncome += price;\n            address _inviter = users[levelWinners[i]].inviter;\n            \n            usersFund[_inviter].recycleFund += recyclePrice;\n            usersFund[_inviter].levelFund += levelPrice;\n            \n            // if(usersIncomes[_inviter].recycleFund>=levels[0])\n            // recycleId(_inviter);\n            \n            // if((usersIncomes[_inviter].levelFund >= levels[users[_inviter].levelsPurchased+1]) && (users[_inviter].levelsPurchased < 10))\n            // autoBuyLevel(_inviter);\n        }\n        levelRewardWallet = 0;\n        totalAmountDistributed += price*levelWinners.length;\n    }\n\n    function distributeLevelUpgradeAmount(uint256 _level, address _user) public{\n        uint256 x = (levels[_level]*8)/100;\n        uint256 y = (20*x)/100;\n        uint256 price = (x-y);\n        setUplines(users[_user].id);\n        address[] memory uplines = new address[](10);\n        uplines = users[_user].uplines;\n        for(uint256 i=0;i<10;i++){\n            if(uplines[i]==address(0))\n            {\n                distributionWallet += price; \n                break;\n            }\n            else if(users[uplines[i]].levelsPurchased>=(i+1)){\n                usersIncomes[uplines[i]].upgradeIncome += price;\n\n                usersFund[uplines[i]].recycleFund += (10*x)/100;\n                usersFund[uplines[i]].levelFund += (10*x)/100;\n              \n                address(uint256(uplines[i])).transfer(price);\n                totalAmountDistributed += price;\n                \n            }\n\n            else{\n                users[uplines[i]].loss += price;\n                distributionWallet += price; \n            }\n           \n        }\n    }\n    \n    function getTotalAmountWithdrawn() public view returns (uint256) {\n        return totalAmountDistributed;\n    }\n\n    function getTotalUsers() public view returns (uint256) {\n        return totalUsers;\n    }\n\n    function getRewardWallet()public view returns (uint256) {\n        return rewardWallet;\n    }\n    function getLevelRewardWallet() public view returns (uint256) {\n        return levelRewardWallet;\n    }\n\n    function getDirectIncome(address _add) public view returns (uint256){\n        return usersIncomes[_add].directIncome;\n    }\n\n   function getUserInfo(uint256 _id)\n        public\n        view\n        returns (\n        address inviter,\n        uint256 totalReferals,\n        uint256 totalRecycles,\n        uint256 totalWins,\n        uint256 levelsPurchased,\n        uint256 loss\n        )\n    {\n        User memory user = users[users_ids[_id]];\n        return (\n            user.inviter,\n            user.totalReferals,\n            user.totalRecycles,\n            user.totalWins,\n            user.levelsPurchased,\n            user.loss\n        );\n    }\n    \n    function getUsersIncomes(uint256 _id) public view returns (\n        uint256 directIncome,\n        uint256 rewardIncome,\n        uint256 levelIncome,\n        uint256 recycleIncome,\n        uint256 upgradeIncome,\n        uint256 levelRewardIncome\n        )\n        {\n        return (\n            usersIncomes[users_ids[_id]].directIncome,\n            usersIncomes[users_ids[_id]].rewardIncome,\n            usersIncomes[users_ids[_id]].levelIncome,\n            usersIncomes[users_ids[_id]].recycleIncome,\n            usersIncomes[users_ids[_id]].upgradeIncome,\n            usersIncomes[users_ids[_id]].levelRewardIncome\n            );\n    }\n\n    function getUsersFunds(uint256 _id) public view returns(\n        uint256 recycleFund,\n        uint256 levelFund\n    ){\n        return (\n            usersFund[users_ids[_id]].recycleFund,\n            usersFund[users_ids[_id]].levelFund\n        );\n    }\n    function withDrawlevelFund() public {\n        require(users[msg.sender].levelsPurchased >= 10, \"you cannot withdraw amount\");\n\n        address(uint256(msg.sender)).transfer(\n            usersFund[msg.sender].levelFund\n        );\n\n        usersFund[msg.sender].levelFund = 0;\n    }\n   \n    function withdrawDistributionWallet() public{\n        require(msg.sender == ownerWallet,\"you are not owner\");\n        address(uint256(ownerWallet)).transfer(distributionWallet);\n        totalAmountDistributed += distributionWallet;\n        distributionWallet = 0;\n    }\n    function findFreeReferrer(address _user) public view returns(address) {\n        if(users[_user].referral.length < 4) return _user;\n\n        address[] memory referrals = new address[](30000);\n        referrals[0] = users[_user].referral[0];\n        referrals[1] = users[_user].referral[1];\n        referrals[2] = users[_user].referral[2];\n        referrals[3] = users[_user].referral[3];\n\n        address freeReferrer;\n        bool noFreeReferrer = true;\n\n        for(uint256 i = 0; i < 30000; i++) {\n            if(users[referrals[i]].referral.length == 4) {\n                    referrals[(i+1)*4] = users[referrals[i]].referral[0];\n                    referrals[(i+1)*4+1] = users[referrals[i]].referral[1];\n                    referrals[(i+1)*4+2] = users[referrals[i]].referral[2];\n                    referrals[(i+1)*4+3] = users[referrals[i]].referral[3];\n            }\n            else {\n                noFreeReferrer = false;\n                freeReferrer = referrals[i];\n                break;\n            }\n        }\n\n        require(!noFreeReferrer, 'No Free Referrer');\n\n        return freeReferrer;\n    }\n\n    function getLevelsPurchased(uint256 _id) public view returns(uint256){\n        return users[users_ids[_id]].levelsPurchased;\n    }\n    function viewUserReferral(uint256 _id) public view returns(address[] memory) {\n        return users[users_ids[_id]].referral;\n    }\n    \n    function setUplines(uint256 _id) public{\n        address[] memory uplinesLocal=new address[](10);\n        uint256 userId = users[users_ids[_id]].upline;\n        for(uint256 i=0;i<10;i++){\n            if(userId == 0)\n            break;\n            uplinesLocal[i]=users_ids[userId];\n            userId = users[users_ids[userId]].upline;\n        }\n        users[users_ids[_id]].uplines = uplinesLocal;\n       \n    }\n\n    function getUplines(uint256 _id) public view returns(address[] memory){\n        return users[users_ids[_id]].uplines;\n    }\n\n    function setLevelWinners() public returns(uint256){\n        address[] memory levelWinner = new address[](100);\n        uint256 i;\n        uint256 j=0;\n        for(i=1;i<=totalUsers;i++){\n             if(users[users_ids[i]].referral.length==4 && users_ids[i]!=address(0)){\n                levelWinner[j++]= (users_ids[i]);\n            }\n        }\n        levelWinners = levelWinner;\n        return j;\n    }\n\n    function getLevelWinners() public view returns(address[] memory){\n     return levelWinners;\n    }\n}\n",
  "sourcePath": "/home/neha/nexennew/contracts/MLM.sol",
  "compiler": {
    "name": "solc",
    "version": "0.5.4+commit.d15a3125.mod.Emscripten.clang"
  },
  "schemaVersion": "2.0.1",
  "updatedAt": "2020-08-24T08:48:11.636Z"
}